{
  "_format": "hh-sol-artifact-1",
  "contractName": "CrowdFund",
  "sourceName": "contracts/CrowdFund.sol",
  "abi": [
    {
      "inputs": [
        {
          "internalType": "address",
          "name": "_token",
          "type": "address"
        }
      ],
      "stateMutability": "nonpayable",
      "type": "constructor"
    },
    {
      "anonymous": false,
      "inputs": [
        {
          "indexed": false,
          "internalType": "uint256",
          "name": "id",
          "type": "uint256"
        }
      ],
      "name": "Cancel",
      "type": "event"
    },
    {
      "anonymous": false,
      "inputs": [
        {
          "indexed": false,
          "internalType": "uint256",
          "name": "id",
          "type": "uint256"
        }
      ],
      "name": "Claim",
      "type": "event"
    },
    {
      "anonymous": false,
      "inputs": [
        {
          "indexed": false,
          "internalType": "uint256",
          "name": "id",
          "type": "uint256"
        },
        {
          "indexed": true,
          "internalType": "address",
          "name": "creator",
          "type": "address"
        },
        {
          "indexed": false,
          "internalType": "uint256",
          "name": "goal",
          "type": "uint256"
        },
        {
          "indexed": false,
          "internalType": "uint32",
          "name": "startAt",
          "type": "uint32"
        },
        {
          "indexed": false,
          "internalType": "uint32",
          "name": "endAt",
          "type": "uint32"
        }
      ],
      "name": "Launch",
      "type": "event"
    },
    {
      "anonymous": false,
      "inputs": [
        {
          "indexed": true,
          "internalType": "uint256",
          "name": "id",
          "type": "uint256"
        },
        {
          "indexed": true,
          "internalType": "address",
          "name": "caller",
          "type": "address"
        },
        {
          "indexed": false,
          "internalType": "uint256",
          "name": "amount",
          "type": "uint256"
        }
      ],
      "name": "Pledge",
      "type": "event"
    },
    {
      "anonymous": false,
      "inputs": [
        {
          "indexed": false,
          "internalType": "uint256",
          "name": "id",
          "type": "uint256"
        },
        {
          "indexed": true,
          "internalType": "address",
          "name": "caller",
          "type": "address"
        },
        {
          "indexed": false,
          "internalType": "uint256",
          "name": "amount",
          "type": "uint256"
        }
      ],
      "name": "Refund",
      "type": "event"
    },
    {
      "anonymous": false,
      "inputs": [
        {
          "indexed": true,
          "internalType": "uint256",
          "name": "id",
          "type": "uint256"
        },
        {
          "indexed": true,
          "internalType": "address",
          "name": "caller",
          "type": "address"
        },
        {
          "indexed": false,
          "internalType": "uint256",
          "name": "amount",
          "type": "uint256"
        }
      ],
      "name": "Unpledge",
      "type": "event"
    },
    {
      "inputs": [
        {
          "internalType": "uint256",
          "name": "",
          "type": "uint256"
        }
      ],
      "name": "campaigns",
      "outputs": [
        {
          "internalType": "uint256",
          "name": "id",
          "type": "uint256"
        },
        {
          "internalType": "address",
          "name": "creator",
          "type": "address"
        },
        {
          "internalType": "uint256",
          "name": "goal",
          "type": "uint256"
        },
        {
          "internalType": "uint256",
          "name": "pledged",
          "type": "uint256"
        },
        {
          "internalType": "uint32",
          "name": "startAt",
          "type": "uint32"
        },
        {
          "internalType": "uint32",
          "name": "endAt",
          "type": "uint32"
        },
        {
          "internalType": "bool",
          "name": "claimed",
          "type": "bool"
        }
      ],
      "stateMutability": "view",
      "type": "function"
    },
    {
      "inputs": [
        {
          "internalType": "uint256",
          "name": "_id",
          "type": "uint256"
        }
      ],
      "name": "cancel",
      "outputs": [],
      "stateMutability": "nonpayable",
      "type": "function"
    },
    {
      "inputs": [
        {
          "internalType": "uint256",
          "name": "_id",
          "type": "uint256"
        }
      ],
      "name": "claim",
      "outputs": [],
      "stateMutability": "nonpayable",
      "type": "function"
    },
    {
      "inputs": [],
      "name": "count",
      "outputs": [
        {
          "internalType": "uint256",
          "name": "",
          "type": "uint256"
        }
      ],
      "stateMutability": "view",
      "type": "function"
    },
    {
      "inputs": [
        {
          "internalType": "uint256",
          "name": "_id",
          "type": "uint256"
        }
      ],
      "name": "getCampaign",
      "outputs": [
        {
          "components": [
            {
              "internalType": "uint256",
              "name": "id",
              "type": "uint256"
            },
            {
              "internalType": "address",
              "name": "creator",
              "type": "address"
            },
            {
              "internalType": "uint256",
              "name": "goal",
              "type": "uint256"
            },
            {
              "internalType": "uint256",
              "name": "pledged",
              "type": "uint256"
            },
            {
              "internalType": "uint32",
              "name": "startAt",
              "type": "uint32"
            },
            {
              "internalType": "uint32",
              "name": "endAt",
              "type": "uint32"
            },
            {
              "internalType": "bool",
              "name": "claimed",
              "type": "bool"
            }
          ],
          "internalType": "struct CrowdFund.Campaign",
          "name": "",
          "type": "tuple"
        }
      ],
      "stateMutability": "view",
      "type": "function"
    },
    {
      "inputs": [
        {
          "internalType": "uint256",
          "name": "_goal",
          "type": "uint256"
        },
        {
          "internalType": "uint32",
          "name": "_startAt",
          "type": "uint32"
        },
        {
          "internalType": "uint32",
          "name": "_endAt",
          "type": "uint32"
        }
      ],
      "name": "launch",
      "outputs": [],
      "stateMutability": "nonpayable",
      "type": "function"
    },
    {
      "inputs": [
        {
          "internalType": "uint256",
          "name": "_id",
          "type": "uint256"
        },
        {
          "internalType": "uint256",
          "name": "_amount",
          "type": "uint256"
        }
      ],
      "name": "pledge",
      "outputs": [],
      "stateMutability": "nonpayable",
      "type": "function"
    },
    {
      "inputs": [
        {
          "internalType": "uint256",
          "name": "",
          "type": "uint256"
        },
        {
          "internalType": "address",
          "name": "",
          "type": "address"
        }
      ],
      "name": "pledgedAmount",
      "outputs": [
        {
          "internalType": "uint256",
          "name": "",
          "type": "uint256"
        }
      ],
      "stateMutability": "view",
      "type": "function"
    },
    {
      "inputs": [
        {
          "internalType": "uint256",
          "name": "_id",
          "type": "uint256"
        }
      ],
      "name": "refund",
      "outputs": [],
      "stateMutability": "nonpayable",
      "type": "function"
    },
    {
      "inputs": [],
      "name": "token",
      "outputs": [
        {
          "internalType": "contract IERC20",
          "name": "",
          "type": "address"
        }
      ],
      "stateMutability": "view",
      "type": "function"
    },
    {
      "inputs": [
        {
          "internalType": "uint256",
          "name": "_id",
          "type": "uint256"
        },
        {
          "internalType": "uint256",
          "name": "_amount",
          "type": "uint256"
        }
      ],
      "name": "unpledge",
      "outputs": [],
      "stateMutability": "nonpayable",
      "type": "function"
    }
  ],
  "bytecode": "0x60a06040523480156200001157600080fd5b5060405162001fdf38038062001fdf8339818101604052810190620000379190620000dc565b8073ffffffffffffffffffffffffffffffffffffffff1660808173ffffffffffffffffffffffffffffffffffffffff1681525050506200010e565b600080fd5b600073ffffffffffffffffffffffffffffffffffffffff82169050919050565b6000620000a48262000077565b9050919050565b620000b68162000097565b8114620000c257600080fd5b50565b600081519050620000d681620000ab565b92915050565b600060208284031215620000f557620000f462000072565b5b60006200010584828501620000c5565b91505092915050565b608051611e9962000146600039600081816104fd01528181610a5801528181610fe5015281816110fd01526112740152611e996000f3fe608060405234801561001057600080fd5b50600436106100a95760003560e01c806340e58ee51161007157806340e58ee5146101565780635598f8cc14610172578063711853ab146101a2578063aa4fb63a146101be578063fc0c546a146101ee578063fde327be1461020c576100a9565b806306661abd146100ae578063141961bc146100cc578063278ecde1146101025780632c63f1461461011e578063379607f51461013a575b600080fd5b6100b6610228565b6040516100c391906113e1565b60405180910390f35b6100e660048036038101906100e1919061142d565b61022e565b6040516100f997969594939291906114d5565b60405180910390f35b61011c6004803603810190610117919061142d565b6102bd565b005b61013860048036038101906101339190611570565b6105ef565b005b610154600480360381019061014f919061142d565b610897565b005b610170600480360381019061016b919061142d565b610b58565b005b61018c6004803603810190610187919061142d565b610de5565b604051610199919061168d565b60405180910390f35b6101bc60048036038101906101b791906116a8565b610eed565b005b6101d860048036038101906101d39190611714565b6110d6565b6040516101e591906113e1565b60405180910390f35b6101f66110fb565b60405161020391906117b3565b60405180910390f35b610226600480360381019061022191906116a8565b61111f565b005b60005481565b60016020528060005260406000206000915090508060000154908060010160009054906101000a900473ffffffffffffffffffffffffffffffffffffffff16908060020154908060030154908060040160009054906101000a900463ffffffff16908060040160049054906101000a900463ffffffff16908060040160089054906101000a900460ff16905087565b6000600160008381526020019081526020016000206040518060e0016040529081600082015481526020016001820160009054906101000a900473ffffffffffffffffffffffffffffffffffffffff1673ffffffffffffffffffffffffffffffffffffffff1673ffffffffffffffffffffffffffffffffffffffff16815260200160028201548152602001600382015481526020016004820160009054906101000a900463ffffffff1663ffffffff1663ffffffff1681526020016004820160049054906101000a900463ffffffff1663ffffffff1663ffffffff1681526020016004820160089054906101000a900460ff16151515158152505090508060a0015163ffffffff164211610406576040517f08c379a00000000000000000000000000000000000000000000000000000000081526004016103fd9061182b565b60405180910390fd5b8060400151816060015110610450576040517f08c379a000000000000000000000000000000000000000000000000000000000815260040161044790611897565b60405180910390fd5b60006002600084815260200190815260200160002060003373ffffffffffffffffffffffffffffffffffffffff1673ffffffffffffffffffffffffffffffffffffffff16815260200190815260200160002054905060006002600085815260200190815260200160002060003373ffffffffffffffffffffffffffffffffffffffff1673ffffffffffffffffffffffffffffffffffffffff168152602001908152602001600020819055507f000000000000000000000000000000000000000000000000000000000000000073ffffffffffffffffffffffffffffffffffffffff1663a9059cbb33836040518363ffffffff1660e01b81526004016105569291906118b7565b6020604051808303816000875af1158015610575573d6000803e3d6000fd5b505050506040513d601f19601f82011682018060405250810190610599919061190c565b503373ffffffffffffffffffffffffffffffffffffffff167f21e12a7cad0da5928167e1084ea4d5fdf8d9af66657a2543a9ac76a0ca08147784836040516105e2929190611939565b60405180910390a2505050565b428263ffffffff161015610638576040517f08c379a000000000000000000000000000000000000000000000000000000000815260040161062f906119ae565b60405180910390fd5b8163ffffffff168163ffffffff161015610687576040517f08c379a000000000000000000000000000000000000000000000000000000000815260040161067e90611a1a565b60405180910390fd5b6276a700426106969190611a69565b8163ffffffff1611156106de576040517f08c379a00000000000000000000000000000000000000000000000000000000081526004016106d590611b0b565b60405180910390fd5b60016000808282546106f09190611a69565b925050819055506040518060e0016040528060005481526020013373ffffffffffffffffffffffffffffffffffffffff168152602001848152602001600081526020018363ffffffff1681526020018263ffffffff1681526020016000151581525060016000805481526020019081526020016000206000820151816000015560208201518160010160006101000a81548173ffffffffffffffffffffffffffffffffffffffff021916908373ffffffffffffffffffffffffffffffffffffffff160217905550604082015181600201556060820151816003015560808201518160040160006101000a81548163ffffffff021916908363ffffffff16021790555060a08201518160040160046101000a81548163ffffffff021916908363ffffffff16021790555060c08201518160040160086101000a81548160ff0219169083151502179055509050503373ffffffffffffffffffffffffffffffffffffffff167f0601cd0d650b473037e838a2696d41e654433d065b3f56b28d1d3302e44a304f60005485858560405161088a9493929190611b2b565b60405180910390a2505050565b60006001600083815260200190815260200160002090503373ffffffffffffffffffffffffffffffffffffffff168160010160009054906101000a900473ffffffffffffffffffffffffffffffffffffffff1673ffffffffffffffffffffffffffffffffffffffff1614610940576040517f08c379a000000000000000000000000000000000000000000000000000000000815260040161093790611bbc565b60405180910390fd5b8060040160049054906101000a900463ffffffff1663ffffffff16421161099c576040517f08c379a00000000000000000000000000000000000000000000000000000000081526004016109939061182b565b60405180910390fd5b8060020154816003015410156109e7576040517f08c379a00000000000000000000000000000000000000000000000000000000081526004016109de90611c28565b60405180910390fd5b8060040160089054906101000a900460ff1615610a39576040517f08c379a0000000000000000000000000000000000000000000000000000000008152600401610a3090611c94565b60405180910390fd5b60018160040160086101000a81548160ff0219169083151502179055507f000000000000000000000000000000000000000000000000000000000000000073ffffffffffffffffffffffffffffffffffffffff1663a9059cbb8260010160009054906101000a900473ffffffffffffffffffffffffffffffffffffffff1683600301546040518363ffffffff1660e01b8152600401610ad99291906118b7565b6020604051808303816000875af1158015610af8573d6000803e3d6000fd5b505050506040513d601f19601f82011682018060405250810190610b1c919061190c565b507f7bb2b3c10797baccb6f8c4791f1edd6ca2f0d028ee0eda64b01a9a57e3a653f782604051610b4c91906113e1565b60405180910390a15050565b6000600160008381526020019081526020016000206040518060e0016040529081600082015481526020016001820160009054906101000a900473ffffffffffffffffffffffffffffffffffffffff1673ffffffffffffffffffffffffffffffffffffffff1673ffffffffffffffffffffffffffffffffffffffff16815260200160028201548152602001600382015481526020016004820160009054906101000a900463ffffffff1663ffffffff1663ffffffff1681526020016004820160049054906101000a900463ffffffff1663ffffffff1663ffffffff1681526020016004820160089054906101000a900460ff16151515158152505090503373ffffffffffffffffffffffffffffffffffffffff16816020015173ffffffffffffffffffffffffffffffffffffffff1614610cc7576040517f08c379a0000000000000000000000000000000000000000000000000000000008152600401610cbe90611bbc565b60405180910390fd5b806080015163ffffffff164210610d13576040517f08c379a0000000000000000000000000000000000000000000000000000000008152600401610d0a90611d00565b60405180910390fd5b600160008381526020019081526020016000206000808201600090556001820160006101000a81549073ffffffffffffffffffffffffffffffffffffffff0219169055600282016000905560038201600090556004820160006101000a81549063ffffffff02191690556004820160046101000a81549063ffffffff02191690556004820160086101000a81549060ff021916905550507f8bf30e7ff26833413be5f69e1d373744864d600b664204b4a2f9844a8eedb9ed82604051610dd991906113e1565b60405180910390a15050565b610ded611367565b600160008381526020019081526020016000206040518060e0016040529081600082015481526020016001820160009054906101000a900473ffffffffffffffffffffffffffffffffffffffff1673ffffffffffffffffffffffffffffffffffffffff1673ffffffffffffffffffffffffffffffffffffffff16815260200160028201548152602001600382015481526020016004820160009054906101000a900463ffffffff1663ffffffff1663ffffffff1681526020016004820160049054906101000a900463ffffffff1663ffffffff1663ffffffff1681526020016004820160089054906101000a900460ff1615151515815250509050919050565b60006001600084815260200190815260200160002090508060040160049054906101000a900463ffffffff1663ffffffff16421115610f61576040517f08c379a0000000000000000000000000000000000000000000000000000000008152600401610f5890611d6c565b60405180910390fd5b81816003016000828254610f759190611d8c565b92505081905550816002600085815260200190815260200160002060003373ffffffffffffffffffffffffffffffffffffffff1673ffffffffffffffffffffffffffffffffffffffff1681526020019081526020016000206000828254610fdc9190611d8c565b925050819055507f000000000000000000000000000000000000000000000000000000000000000073ffffffffffffffffffffffffffffffffffffffff1663a9059cbb33846040518363ffffffff1660e01b815260040161103e9291906118b7565b6020604051808303816000875af115801561105d573d6000803e3d6000fd5b505050506040513d601f19601f82011682018060405250810190611081919061190c565b503373ffffffffffffffffffffffffffffffffffffffff16837f2eeeab891b26a214d1b25749f88a406bdea852bd8c9bfda977e0ef8114c180ba846040516110c991906113e1565b60405180910390a3505050565b6002602052816000526040600020602052806000526040600020600091509150505481565b7f000000000000000000000000000000000000000000000000000000000000000081565b60006001600084815260200190815260200160002090508060040160009054906101000a900463ffffffff1663ffffffff16421015611193576040517f08c379a000000000000000000000000000000000000000000000000000000000815260040161118a90611e0c565b60405180910390fd5b8060040160049054906101000a900463ffffffff1663ffffffff164211156111f0576040517f08c379a00000000000000000000000000000000000000000000000000000000081526004016111e790611d6c565b60405180910390fd5b818160030160008282546112049190611a69565b92505081905550816002600085815260200190815260200160002060003373ffffffffffffffffffffffffffffffffffffffff1673ffffffffffffffffffffffffffffffffffffffff168152602001908152602001600020600082825461126b9190611a69565b925050819055507f000000000000000000000000000000000000000000000000000000000000000073ffffffffffffffffffffffffffffffffffffffff166323b872dd3330856040518463ffffffff1660e01b81526004016112cf93929190611e2c565b6020604051808303816000875af11580156112ee573d6000803e3d6000fd5b505050506040513d601f19601f82011682018060405250810190611312919061190c565b503373ffffffffffffffffffffffffffffffffffffffff16837f06bdb975df800a73232998e71ed585d536222f1dfeaa622d7f62a23ada686c828460405161135a91906113e1565b60405180910390a3505050565b6040518060e0016040528060008152602001600073ffffffffffffffffffffffffffffffffffffffff1681526020016000815260200160008152602001600063ffffffff168152602001600063ffffffff1681526020016000151581525090565b6000819050919050565b6113db816113c8565b82525050565b60006020820190506113f660008301846113d2565b92915050565b600080fd5b61140a816113c8565b811461141557600080fd5b50565b60008135905061142781611401565b92915050565b600060208284031215611443576114426113fc565b5b600061145184828501611418565b91505092915050565b600073ffffffffffffffffffffffffffffffffffffffff82169050919050565b60006114858261145a565b9050919050565b6114958161147a565b82525050565b600063ffffffff82169050919050565b6114b48161149b565b82525050565b60008115159050919050565b6114cf816114ba565b82525050565b600060e0820190506114ea600083018a6113d2565b6114f7602083018961148c565b61150460408301886113d2565b61151160608301876113d2565b61151e60808301866114ab565b61152b60a08301856114ab565b61153860c08301846114c6565b98975050505050505050565b61154d8161149b565b811461155857600080fd5b50565b60008135905061156a81611544565b92915050565b600080600060608486031215611589576115886113fc565b5b600061159786828701611418565b93505060206115a88682870161155b565b92505060406115b98682870161155b565b9150509250925092565b6115cc816113c8565b82525050565b6115db8161147a565b82525050565b6115ea8161149b565b82525050565b6115f9816114ba565b82525050565b60e08201600082015161161560008501826115c3565b50602082015161162860208501826115d2565b50604082015161163b60408501826115c3565b50606082015161164e60608501826115c3565b50608082015161166160808501826115e1565b5060a082015161167460a08501826115e1565b5060c082015161168760c08501826115f0565b50505050565b600060e0820190506116a260008301846115ff565b92915050565b600080604083850312156116bf576116be6113fc565b5b60006116cd85828601611418565b92505060206116de85828601611418565b9150509250929050565b6116f18161147a565b81146116fc57600080fd5b50565b60008135905061170e816116e8565b92915050565b6000806040838503121561172b5761172a6113fc565b5b600061173985828601611418565b925050602061174a858286016116ff565b9150509250929050565b6000819050919050565b600061177961177461176f8461145a565b611754565b61145a565b9050919050565b600061178b8261175e565b9050919050565b600061179d82611780565b9050919050565b6117ad81611792565b82525050565b60006020820190506117c860008301846117a4565b92915050565b600082825260208201905092915050565b7f6e6f7420656e6465640000000000000000000000000000000000000000000000600082015250565b60006118156009836117ce565b9150611820826117df565b602082019050919050565b6000602082019050818103600083015261184481611808565b9050919050565b7f706c6564676564203e3d20676f616c0000000000000000000000000000000000600082015250565b6000611881600f836117ce565b915061188c8261184b565b602082019050919050565b600060208201905081810360008301526118b081611874565b9050919050565b60006040820190506118cc600083018561148c565b6118d960208301846113d2565b9392505050565b6118e9816114ba565b81146118f457600080fd5b50565b600081519050611906816118e0565b92915050565b600060208284031215611922576119216113fc565b5b6000611930848285016118f7565b91505092915050565b600060408201905061194e60008301856113d2565b61195b60208301846113d2565b9392505050565b7f7374617274206174203c206e6f77000000000000000000000000000000000000600082015250565b6000611998600e836117ce565b91506119a382611962565b602082019050919050565b600060208201905081810360008301526119c78161198b565b9050919050565b7f656e64206174203c207374617274206174000000000000000000000000000000600082015250565b6000611a046011836117ce565b9150611a0f826119ce565b602082019050919050565b60006020820190508181036000830152611a33816119f7565b9050919050565b7f4e487b7100000000000000000000000000000000000000000000000000000000600052601160045260246000fd5b6000611a74826113c8565b9150611a7f836113c8565b9250827fffffffffffffffffffffffffffffffffffffffffffffffffffffffffffffffff03821115611ab457611ab3611a3a565b5b828201905092915050565b7f656e64206174203e206d6178206475726174696f6e0000000000000000000000600082015250565b6000611af56015836117ce565b9150611b0082611abf565b602082019050919050565b60006020820190508181036000830152611b2481611ae8565b9050919050565b6000608082019050611b4060008301876113d2565b611b4d60208301866113d2565b611b5a60408301856114ab565b611b6760608301846114ab565b95945050505050565b7f6e6f742063726561746f72000000000000000000000000000000000000000000600082015250565b6000611ba6600b836117ce565b9150611bb182611b70565b602082019050919050565b60006020820190508181036000830152611bd581611b99565b9050919050565b7f706c6564676564203c20676f616c000000000000000000000000000000000000600082015250565b6000611c12600e836117ce565b9150611c1d82611bdc565b602082019050919050565b60006020820190508181036000830152611c4181611c05565b9050919050565b7f636c61696d656400000000000000000000000000000000000000000000000000600082015250565b6000611c7e6007836117ce565b9150611c8982611c48565b602082019050919050565b60006020820190508181036000830152611cad81611c71565b9050919050565b7f7374617274656400000000000000000000000000000000000000000000000000600082015250565b6000611cea6007836117ce565b9150611cf582611cb4565b602082019050919050565b60006020820190508181036000830152611d1981611cdd565b9050919050565b7f656e646564000000000000000000000000000000000000000000000000000000600082015250565b6000611d566005836117ce565b9150611d6182611d20565b602082019050919050565b60006020820190508181036000830152611d8581611d49565b9050919050565b6000611d97826113c8565b9150611da2836113c8565b925082821015611db557611db4611a3a565b5b828203905092915050565b7f6e6f742073746172746564000000000000000000000000000000000000000000600082015250565b6000611df6600b836117ce565b9150611e0182611dc0565b602082019050919050565b60006020820190508181036000830152611e2581611de9565b9050919050565b6000606082019050611e41600083018661148c565b611e4e602083018561148c565b611e5b60408301846113d2565b94935050505056fea2646970667358221220ed589b5051a21ca0cd6e351cfd57db85c1bd3f8ec670b437e8040b737afef2fc64736f6c634300080d0033",
  "linkReferences": {},
  "deployedLinkReferences": {}
}